:100000000C94A2000C94C3000C94C3000C94C30085
:100010000C94C3000C94C3000C94C3000C94C30054
:100020000C94C3000C94C3000C94C3000C94C30044
:100030000C94C3000C94C3000C94C3000C94C30034
:100040000C94C3000C94C3000C94C3000C94C30024
:100050000C94C3000C94C3000C94C3000C94C30014
:100060000C94C3000C94C3000C94C3000C94C30004
:100070000C94C3000C94C3000C94C3000C94C300F4
:100080000C94C3000C94C3000C94C3000C94C300E4
:100090000C94C3000C94C3000C94C3000C94F200A5
:1000A0000C94C3000C94C3000C94C3000C94C300C4
:1000B0000C94C3000C94C3000C94C3000C94C300B4
:1000C0000C94C3000C94C3000C94C3000C94C300A4
:1000D0000C94C3000C94C3000C94C3000C94C30094
:1000E0000C94C3000C94B5040C945C040C94810330
:1000F0000C94C5010C94D1010C94CB010C94CD014E
:100100000C94D5010C94DF010C94FE030C94CF01E8
:100110000C94D9010C94C7010C94E1010C94E701F3
:100120000C94DB010C94E3010C94D8040C947E0431
:100130000C94DD010C94D3010C942D040C94D70184
:100140000C94E50111241FBECFEFD1E2DEBFCDBF7D
:1001500000E00CBF12E0A0E0B2E0E2ECF0E100E071
:100160000BBF02C007900D92A036B107D9F722E06D
:10017000A0E6B2E001C01D92AC3AB207E1F70E94DE
:1001800048030C94E0070C940000A1E8B2E0EC9165
:1001900081E08E0F8C938091BB00F0E0E05AFD4F20
:1001A00080830895E0E6F2E021A180A18150990BBF
:1001B0002817190624F485EC8093BC00089585E87F
:1001C0008093BC000895E0E6F2E080811092840202
:1001D00002A0F3A1E02D309721F061E672E0869550
:1001E000199508951F920F920FB60F9211240BB616
:1001F0000F922F933F934F935F936F937F938F93C0
:100200009F93AF93BF93EF93FF938091B900887F43
:10021000803409F44DC060F0803599F1883529F5B6
:100220000E94C50084E98093BC000E94E3002DC0B9
:10023000883129F0C0F4883011F08031B1F4A1E8A0
:10024000B2E0EC918E91E817B0F481E08E0F8093CC
:100250008102F0E0E05AFD4F80818093BB0085E889
:100260008093BC0012C0883251F384E98093BC00B3
:100270000E94E3000AC084E98093BC000E94E3006E
:1002800004C00E94C5000E94D200FF91EF91BF916F
:10029000AF919F918F917F916F915F914F913F911E
:1002A0002F910F900BBE0F900FBE0F901F901895BF
:1002B0000E94D200EACF80EF809307018FE0809305
:1002C00008010895CF93DF93A8E0B1E090EFE6E056
:1002D000F1E09C9380818F708F30D9F7C9EFD0E027
:1002E0002197F1F700C000009C9380818F708F30C0
:1002F00081F7DF91CF910895CF93DF93A8E0B1E02C
:1003000090EFE6E0F1E09C9380818F708F30D9F31D
:10031000C9EFD0E02197F1F700C000009C938081E5
:100320008F708F3081F3DF91CF910895CF93DF935A
:100330000E94620189EF90E00197F1F700C0000090
:100340000E947C0194E0EFEE28E031E0A6E0B1E00D
:10035000E901E883C9EFD0E02197F1F700C0000080
:100360008C918F708F3029F4EE0FEF5F91509111C7
:10037000EFCFE07FE80FE757E83738F5F0E0882760
:10038000EE51F84F8F4F0C94EC048AE201C084E3E5
:10039000DF91CF91089581E3FBCF80E3F9CF88E32C
:1003A000F7CF85E3F5CF82E3F3CF83E2F1CF89E3A3
:1003B000EFCF86E3EDCF83E3EBCF84E4E9CF83E4B3
:1003C000E7CF82E4E5CF81E4E3CF8AE7E1CF87E3BB
:1003D000DFCF811509F1449A429A3F983D983B98A6
:1003E0003998409A00008827379983958295807FB5
:1003F0003599806233998064319980684098000013
:10040000409A000037990AC0359982603399846018
:1004100031998860409808954498DECF8160F4CF88
:1004200080E00E94E9018115DCF300C000C080E09B
:100430000E94E9010895409A000040980895CF93E2
:10044000C82F611541F1449A42983F9A3D9A3B9AD0
:10045000399A4198439845984798C115F4F0C6FDDC
:10046000439AC5FD459AC4FD479A0E941B024198D4
:10047000439845984798C3FD419AC2FD439AC1FDF0
:10048000459AC0FD479A0E941B02479A459A439A93
:10049000419ACF9108954498D7CF419AE0CFCF9316
:1004A000DF930F92CDB7DEB789830E94100260E020
:1004B00089810E941F020F90DF91CF91089581E002
:1004C0000E944F020895CF93C82F0E941002CA3095
:1004D00069F491E0803408F090E080E4899F802DF9
:1004E000112480580E944F02CF91089561E08C2F13
:1004F0000E941F02F9CFCF93DF93C82FD92F888195
:10050000811531F021960E94630289918111FBCF00
:10051000DF91CF910895CF93DF930F92CDB7DEB7E0
:1005200089833C9A3A9A389A3F9A3D9A3B9A399AEB
:100530008FE99FE00197F1F700C00000459A479AC4
:100540000E941B0281EE94E00197F1F700C00000C9
:100550000E941B0295E19A95F1F700000E941B0290
:1005600085E18A95F1F7000047980E941B0295E10A
:100570009A95F1F7000088E20E944F0288E00E94FD
:100580004F020E945F0286E00E944F0289810E9412
:100590004F020F90DF91CF9108951092B90088E437
:1005A0008093B80084E08093BC00089584EA80932F
:1005B000BC00ECEBF0E080818115ECF7089584E954
:1005C0008093BC0085E38A95F1F70000089580933D
:1005D000BB0084E88093BC00ECEBF0E080818115E7
:1005E000ECF70895CF93DF930F92CDB7DEB78983F1
:1005F0000E94D60280E20E94E70289810E94E702FF
:100600000E94DF020F90DF91CF9108951092C500F4
:1006100087E68093C40088E08093C10086E08093E1
:10062000C2000895E0ECF0E0908195FFFDCF80934B
:10063000C6000895CF93DF93C82FD92F88818115E5
:1006400031F021960E94120389918111FBCFDF9135
:10065000CF910895A198A2985F98089580E480931F
:100660007C0086E880937A000895ECE7F0E09081C2
:10067000907F892B8083EAE7F0E08081806480832B
:10068000808186FDFDCF809178009091790008955A
:1006900000D00F920F92CDB7DEB783B3866083BBD5
:1006A000579A0E94060380E092E00E941A038CE0B1
:1006B0000E948B020E945F020E945B010E942E0337
:1006C0000E94CD02DD24D3940F2EF3E0CF2EF02D27
:1006D0000F2EF5E0AF2EF02D6894BB24B2F80F2E4C
:1006E000FAE2EF2EF2E0FF2EF02D07E812E0689418
:1006F000882481F80F2EF6E09F2EF02D09831A83AF
:10070000EFC08FE092E00E941A030E942A03A19A90
:100710000E945F028DE192E00E947B021092A8028B
:100720008D2D8093A70231C0292F220F220F920F07
:10073000990F890F8093A8020E945F028091A802FE
:100740001F928F93FF92EF921F930F930E94F404D6
:1007500089819A810E947B020F900F900F900F90D9
:100760000F900F9022C08FE39CE90197F1F700C032
:1007700000000E9496018A37B1F780918602833289
:10078000F1F0809186028A3219F18091A7028115D9
:1007900029F10E9496018093860280538A3068F77F
:1007A0009091A8029A3008F4BFCF9FEF23EC89E024
:1007B000915020408040E1F700C00000DACF109255
:1007C000A8020E945F028DE192E00E947B02D9CFD5
:1007D0008091A8028093A9028B81A3CF8091A90266
:1007E0009091AA02981721F030F4D092AB0278C011
:1007F0009092AB0275C08092AB0272C00E942A0335
:10080000A29A8091AA028F5F8093AA020E945F023F
:100810008091AA021F928F93FF92EF921F930F93E2
:100820000E94F404C8010E947B029FEF23ED80E345
:10083000915020408040E1F700C000000F900F90E1
:100840000F900F900F900F909091AA028091A902A3
:10085000981346C0C092AB0243C00E942A03A29ADA
:100860008091AA0281508093AA020E945F02809127
:10087000AA021F928F93FF92EF921F930F930E94F1
:10088000F404C8010E947B029FEF23ED80E39150A6
:1008900020408040E1F700C000000F900F900F90C3
:1008A0000F900F900F909091AA028091A902981337
:1008B00017C0C092AB0214C00E942A035F9A0E9424
:1008C0005F0283E392E00E947B029FEF2BE782E9C5
:1008D000915020408040E1F700C00000B092AB0290
:1008E0002091AB022B838B818730E8F7E82FF0E073
:1008F0008827E65AF74F8F4F0C94EC040E942A0386
:100900005F9A0E945F028DE392E00E947B0288E280
:1009100090E09D838C8387E00E943503803991406D
:10092000E0F08FEF90E722E0815090402040E1F727
:1009300000C000008C819D8101979D838C83892B51
:1009400051F78091AB02853059F21092850280E018
:100950000E94F2021092AB02C3CFD09285028D2D7D
:100960000E94F202A092AB02BBCF0E945F028AE417
:1009700092E00E947B02D09285028D2D0E94F202AD
:1009800009C09FEF21EE84E0915020408040E1F7C4
:1009900000C0000087E00E9435038039914088F351
:1009A0001092850280E00E94F202C092AB0298CFC2
:1009B0000E942A030E945F0284E592E00E947B026B
:1009C0008FEF97EA21E6815090402040E1F700C088
:1009D00000001092AB0284CFEE0FFF1F881F8BBF69
:1009E0000790F691E02D1994CF93DF93CDB7DEB742
:1009F0002E970FB6F894DEBF0FBECDBF86E08C8376
:100A00002C893D8929833A838FEF9FE78D839E83CD
:100A1000AE01485E5F4F6E897F89CE0101960E94CC
:100A20002105EF81F8852C893D89E20FF31F1082A3
:100A30002E960FB6F894DEBF0FBECDBFDF91CF91DB
:100A400008955F926F927F928F929F92AF92BF9222
:100A5000CF92DF92EF92FF920F931F93CF93DF938A
:100A600000D000D000D00F920F92CDB7DEB76C014E
:100A70007B018A01FC0116821782838181FFF1C10B
:100A80003AE0532EF6012381F70123FD859123FFE0
:100A900081917F01811509F437C1853239F423FD35
:100AA000959123FF91917F01953229F4B60190E051
:100AB0000E944A07E7CF30E0912C612C712CF0E2C4
:100AC0007F1640F59B32D9F058F49032D1F0933232
:100AD000F1F09E3291F576FC17C1689476F806C065
:100AE0009D3291F09033C1F4689470F8F70123FDC2
:100AF000959123FF91917F019111E1CF28C06894D6
:100B000071F8689472F8F2CF689473F8EFCF689434
:100B100074F8ECCF77FC1BC080ED890F8A30C8F6E3
:100B200076FE05C0959C800D1124982EDFCF659C24
:100B3000800D1124682E7F2AD9CF9C3619F4689431
:100B400077F8D4CF9C3409F445C0983679F2892FD0
:100B50008F7D8554833008F43FC0933609F461C01B
:100B6000933709F46BC0933509F477C0943619F0C4
:100B7000993609F0A4C0F80177FE9AC0619171918D
:100B8000819191918F01272D2F76822E97FF04C09E
:100B90000E94D807689487F82AE030E05E014FEFA2
:100BA000A41AB40AA5010E947A07782E7A1886FE44
:100BB000E1C0882D8E7F791408F0DBC084FE2FC140
:100BC00082FC23C12EEE8222B92C882D867809F46E
:100BD000DDC020C131E08ACF311501F1085F1F4F20
:100BE0008FE3898321E0822E912C5E012FEFA21AE0
:100BF000B20AE89477F873FC03C086149104F0F10C
:100C00008114910409F041C0611409F43BCFB6018D
:100C100080E290E00E944A076A94F6CF0C5F1F4F73
:100C2000DFCFF801808189830E5F1F4F91E0892E0D
:100C3000912C5E01FFEFAF1ABF0ADBCFF801A19044
:100C4000B1908F01692D70E076FC02C06FEF7FEFED
:100C5000C5010E943F074C01CCCFF801A190B19093
:100C60008F01692D70E076FC02C06FEF7FEFC50148
:100C70000E9434074C01689477F8BDCFB60180E23A
:100C800090E00E944A076A94B8CFF50177FC8591FD
:100C900077FE81915F01B60190E00E944A0781E0F2
:100CA000611001C080E0681AF1E08F1A9108A8CFA6
:100CB00061917191872F880F880B982F63CF95379B
:100CC000C9F4872CE89484F82AE030E0F80187FE24
:100CD0004BC061917191819191918F015E01FFEF04
:100CE000AF1ABF0AA5010E947A07782E7A18E894F5
:100CF00087F85DCF872D897F882E903729F1E8F41A
:100D0000983539F19F3669F1F601868197812B96E6
:100D10000FB6F894DEBF0FBECDBFDF91CF911F910C
:100D20000F91FF90EF90DF90CF90BF90AF909F908A
:100D30008F907F906F905F900895983729F774FC9B
:100D400005C020E130E0C2CF689484F8689482F84E
:100D5000F8CF74FE03C0E72DE6608E2E20E132E06E
:100D6000B5CF28E030E0B2CF6191719180E090E0A2
:100D7000B4CF882EB72C84FE28CFFE01E70DF11DDD
:100D80008081803309F044C049EE842283FC0EC088
:100D900080FE51C0972CB61418F4960C9B18B62CF4
:100DA000862D8B196B1408F480E0B80EB61408F089
:100DB00044C06B1884FE43C0B60180E390E00E94FB
:100DC0004A0782FE09C088E590E081FC02C088E7FE
:100DD00090E0B6010E944A077914E0F15E018FEFBE
:100DE000A81AB80A7A9482E0882E912C8C0E9D1E47
:100DF000870C911CF40182914F01B60190E00E9492
:100E00004A078A149B04B1F7FFCEB92C882EB5CFC0
:100E100082FC02C0B394BACFB394B394B7CFB92CC9
:100E2000882ED3CEB60180E290E00E944A07A394B8
:100E3000A614C0F3B5CFAB2CFBCF612CBBCF882D54
:100E4000867851F280E281FC8BE287FC8DE2B6016C
:100E500090E0C0CFB60180E390E00E944A079A94E8
:100E6000BBCF8FEF9FEF53CFFC01059061507040D7
:100E70000110D8F7809590958E0F9F1F0895FC0163
:100E80006150704001900110D8F7809590958E0FB9
:100E90009F1F08950F931F93CF93DF93182F092F50
:100EA000EB018B8181FD09C00FEF1FEF812F902F88
:100EB000DF91CF911F910F91089582FF14C02E8171
:100EC0003F818C819D81281739073CF4E881F981A5
:100ED000CF0101968883998310838E819F8101962B
:100EE0008E839F83E3CFE885F985812F1995892B20
:100EF000A1F3DACFFA01AA27283051F1203181F18C
:100F0000E8946F936E7F6E5F7F4F8F4F9F4FAF4F11
:100F1000B1E03ED0B4E03CD0670F781F891F9A1F24
:100F2000A11D680F791F8A1F911DA11D6A0F711DD8
:100F3000811D911DA11D20D009F468943F912AE0E4
:100F4000269F11243019305D3193DEF6CF010895CC
:100F5000462F4770405D4193B3E00FD0C9F7F6CFFD
:100F6000462F4F70405D4A3318F0495D31FD4052C5
:100F7000419302D0A9F7EACFB4E0A695979587955B
:100F800077956795BA95C9F700976105710508953A
:100F90009B01AC010A2E06945795479537952795E6
:100FA000BA95C9F7620F731F841F951FA01D08957E
:100FB00090958095709561957F4F8F4F9F4F0895C5
:100FC000F894FFCFDD01E501E501E501DF01E50171
:100FD000E101E301E501E501E501E501E501E501E7
:100FE000E501E501E501E501E501E501E501E501D1
:100FF000E501E501E501E501E501E501E501E501C1
:10100000E501E501E501E501E501E501E501E501B0
:10101000E501E501E501E501E501E501E501E501A0
:10102000E501E501E501E501E501E501E501E50190
:10103000E501E501E501E501E501E501E501E50180
:10104000E501E501D501E501E501E501D701E5018E
:10105000D901DB01E501E501E501E501E501E50176
:10106000E501E501E501E501E501E501E501E50150
:10107000E501E501E501E501E501E501E501E50140
:10108000E501E501CD01E501E501E501CF01E5015E
:10109000D101D301E501E501E501E501E501E50146
:1010A000E501E501C501E501E501E501E701E5012E
:1010B000C701CB018103FE032D045C047E04B5044B
:0210C000D80452
:1010C20053797374656D2073746172740D0A0053E1
:1010D200544154453A2049444C450D0A00456E742A
:1010E200657220666C6F6F723A00466C6F6F723A6F
:1010F200256400446F6F72206F70656E00446F6FDD
:101102007220636C6F73696E67004F627374616300
:101112006C65210053616D6520666C6F6F72000013
:00000001FF
