:100000000C94A2000C94C3000C94C3000C94C30085
:100010000C94C3000C94C3000C94C3000C94C30054
:100020000C94C3000C94C3000C94C3000C94C30044
:100030000C94C3000C94C3000C94C3000C94C30034
:100040000C94C3000C94C3000C94C3000C94C30024
:100050000C94C3000C94C3000C94C3000C94C30014
:100060000C94C3000C94C3000C94C3000C94C30004
:100070000C94C3000C94C3000C94C3000C94C300F4
:100080000C94C3000C94C3000C94C3000C94C300E4
:100090000C94C3000C94C3000C94C3000C94C300D4
:1000A0000C94C3000C94C3000C94C3000C94C300C4
:1000B0000C94C3000C94C3000C94C3000C94C300B4
:1000C0000C94C3000C94C3000C94C3000C94C300A4
:1000D0000C94C3000C94C3000C94C3000C94C30094
:1000E0000C94C3000C9451010C944F010C944101E9
:1000F0000C9445010C94B0020C944D010C948C03AB
:100100000C943D010C943F010C945B030C9443014F
:100110000C9435010C94AC030C9404040C9437013A
:100120000C9447010C944B010C942F010C94490141
:100130000C942A030C9439010C94E1030C943B01B8
:100140000C94310111241FBECFEFD1E2DEBFCDBF31
:1001500000E00CBF12E0A0E0B2E0E6E1FFE000E06A
:100160000BBF02C007900D92A234B107D9F722E06D
:10017000A2E4B2E001C01D92A936B207E1F70E94E5
:100180007D020C940A070C94000080EF8093070115
:100190008FE0809308010895CF93DF93A8E0B1E04A
:1001A00090EFE6E0F1E09C9380818F708F30D9F77B
:1001B000C9EFD0E02197F1F700C000009C93808147
:1001C0008F708F3081F7DF91CF910895CF93DF93B8
:1001D000A8E0B1E090EFE6E0F1E09C9380818F70C1
:1001E0008F30D9F3C9EFD0E02197F1F700C00000BC
:1001F0009C9380818F708F3081F3DF91CF91089530
:10020000CF93DF930E94CC0089EF90E00197F1F744
:1002100000C000000E94E60094E0EFEE28E031E02C
:10022000A6E0B1E0E901E883C9EFD0E02197F1F75A
:1002300000C000008C918F708F3029F4EE0FEF5FBB
:1002400091509111EFCFE07FE80FE757E83738F58D
:10025000F0E08827E45FF84F8F4F0C9416048AE291
:1002600001C084E3DF91CF91089581E3FBCF80E368
:10027000F9CF88E3F7CF85E3F5CF82E3F3CF83E2CD
:10028000F1CF89E3EFCF86E3EDCF83E3EBCF84E4D7
:10029000E9CF83E4E7CF82E4E5CF81E4E3CF8AE7E7
:1002A000E1CF87E3DFCF811509F1449A429A3F9865
:1002B0003D983B983998409A000088273799839554
:1002C0008295807F35998062339980643199806806
:1002D00040980000409A000037990AC03599826022
:1002E0003399846031998860409808954498DECFAE
:1002F0008160F4CF80E00E9453018115DCF300C0DF
:1003000000C080E00E9453010895409A0000409888
:100310000895CF93C82F611541F1449A42983F9AAE
:100320003D9A3B9A399A4198439845984798C11508
:10033000F4F0C6FD439AC5FD459AC4FD479A0E9454
:1003400085014198439845984798C3FD419AC2FD5D
:10035000439AC1FD459AC0FD479A0E948501479A7C
:10036000459A439A419ACF9108954498D7CF419A9C
:10037000E0CFCF93DF930F92CDB7DEB789830E9492
:100380007A0160E089810E9489010F90DF91CF910D
:10039000089581E00E94B9010895CF93C82F0E946B
:1003A0007A01CA3069F491E0803408F090E080E48A
:1003B000899F802D112480580E94B901CF91089502
:1003C00061E08C2F0E948901F9CFCF93DF93C82F72
:1003D000D92F8881811531F021960E94CD01899114
:1003E0008111FBCFDF91CF910895CF93DF930F92CF
:1003F000CDB7DEB789833C9A3A9A389A3F9A3D9AAC
:100400003B9A399A8FE99FE00197F1F700C000000D
:10041000459A479A0E94850181EE94E00197F1F791
:1004200000C000000E94850195E19A95F1F7000057
:100430000E94850185E18A95F1F7000047980E94A6
:10044000850195E19A95F1F7000088E20E94B901D3
:1004500088E00E94B9010E94C90186E00E94B901AA
:1004600089810E94B9010F90DF91CF91089583E0B7
:100470008093B8001092B900ECEBF0E080818460CA
:100480008083089594EA9093BC00ECEBF0E09081B7
:100490009115ECF790E29093BB0094E89093BC0028
:1004A000ECEBF0E090819115ECF78093BB0084E8D1
:1004B0008093BC00ECEBF0E080818115ECF784E9DF
:1004C0008093BC00089580E480937C0086E880934C
:1004D0007A000895ECE7F0E09081907F892B80838B
:1004E000EAE7F0E0808180648083808186FDFDCF33
:1004F0008091780090917900089500D00F920F922A
:10050000CDB7DEB783B3866083BB579A8CE00E9479
:10051000F5010E94C9010E94C5000E9463020E9469
:100520003702DD24D3940F2EF3E0CF2EF02D0F2EC3
:10053000F5E0AF2EF02D6894BB24B2F80F2EFDE04D
:10054000EF2EF2E0FF2EF02D04E412E068948824F0
:1005500081F80F2EF6E09F2EF02D09831A83EEC04E
:10056000A198A2985F98A19A0E94C90180E092E0A8
:100570000E94E501109265028D2D8093640231C0C6
:10058000292F220F220F920F990F890F8093650256
:100590000E94C901809165021F928F93FF92EF9292
:1005A0001F930F930E941E0489819A810E94E50186
:1005B0000F900F900F900F900F900F9022C08FE32D
:1005C0009CE90197F1F700C000000E9400018A3702
:1005D000B1F7809143028332F1F0809143028A3275
:1005E00019F180916402811529F10E940001809324
:1005F000430280538A3068F7909165029A3008F47C
:10060000BFCF9FEF23EC89E0915020408040E1F77D
:1006100000C00000DACF109265020E94C90180E09C
:1006200092E00E94E501D9CF809165028093660235
:100630008B81A3CF8091660290916702981721F079
:1006400030F4D09268027AC09092680277C08092AB
:10065000680274C084B3897F846084BB5F98809192
:1006600067028F5F809367020E94C90180916702D1
:100670001F928F93FF92EF921F930F930E941E047D
:10068000C8010E94E5019FEF23ED80E391502040D7
:100690008040E1F700C000000F900F900F900F9086
:1006A0000F900F909091670280916602981346C058
:1006B000C092680243C084B3897F846084BB5F9822
:1006C000809167028150809367020E94C9018091E6
:1006D00067021F928F93FF92EF921F930F930E94D6
:1006E0001E04C8010E94E5019FEF23ED80E39150B5
:1006F00020408040E1F700C000000F900F900F9065
:100700000F900F900F90909167028091660298135E
:1007100015C0C092680212C05F9A0E94C90186E1AA
:1007200092E00E94E5019FEF2BE782E99150204083
:100730008040E1F700C00000B0926802209168029A
:100740002B838B818730E8F7E82FF0E08827EC5780
:10075000F84F8F4F0C9416045F9A0E94C90180E2F3
:1007600092E00E94E50188E290E09D838C8387E01F
:100770000E946A0280399140E0F08FEF90E722E01A
:10078000815090402040E1F700C000008C819D81A5
:1007900001979D838C83892B51F780916802853066
:1007A00069F21092420280E00E94420210926802B6
:1007B000C5CFD09242028D2D0E944202A0926802C3
:1007C000BDCF0E94C9018DE292E00E94E501D09266
:1007D00042028D2D0E94420209C09FEF21EE84E06B
:1007E000915020408040E1F700C0000087E00E9467
:1007F0006A028039914088F31092420280E00E94A0
:100800004202C09268029ACF0E94C90187E392E037
:100810000E94E5018FEF97EA21E681509040204049
:10082000E1F700C000001092680288CFEE0FFF1FB2
:10083000881F8BBF0790F691E02D1994CF93DF931B
:10084000CDB7DEB72E970FB6F894DEBF0FBECDBF83
:1008500086E08C832C893D8929833A838FEF9FE73B
:100860008D839E83AE01485E5F4F6E897F89CE0186
:1008700001960E944B04EF81F8852C893D89E20F97
:10088000F31F10822E960FB6F894DEBF0FBECDBFB9
:10089000DF91CF9108955F926F927F928F929F9296
:1008A000AF92BF92CF92DF92EF92FF920F931F937E
:1008B000CF93DF9300D000D000D00F920F92CDB72E
:1008C000DEB76C017B018A01FC01168217828381ED
:1008D00081FFF1C13AE0532EF6012381F70123FD98
:1008E000859123FF81917F01811509F437C18532FC
:1008F00039F423FD959123FF91917F01953229F4DD
:10090000B60190E00E947406E7CF30E0912C612C94
:10091000712CF0E27F1640F59B32D9F058F49032FA
:10092000D1F09332F1F09E3291F576FC17C16894C4
:1009300076F806C09D3291F09033C1F4689470F857
:10094000F70123FD959123FF91917F019111E1CF53
:1009500028C0689471F8689472F8F2CF689473F8BC
:10096000EFCF689474F8ECCF77FC1BC080ED890F53
:100970008A30C8F676FE05C0959C800D1124982E0D
:10098000DFCF659C800D1124682E7F2AD9CF9C363D
:1009900019F4689477F8D4CF9C3409F445C098369C
:1009A00079F2892F8F7D8554833008F43FC09336C8
:1009B00009F461C0933709F46BC0933509F477C02B
:1009C000943619F0993609F0A4C0F80177FE9AC060
:1009D00061917191819191918F01272D2F76822EB6
:1009E00097FF04C00E940207689487F82AE030E06D
:1009F0005E014FEFA41AB40AA5010E94A406782E46
:100A00007A1886FEE1C0882D8E7F791408F0DBC04D
:100A100084FE2FC182FC23C12EEE8222B92C882DA8
:100A2000867809F4DDC020C131E08ACF311501F1AB
:100A3000085F1F4F8FE3898321E0822E912C5E0196
:100A40002FEFA21AB20AE89477F873FC03C0861459
:100A50009104F0F18114910409F041C0611409F48A
:100A60003BCFB60180E290E00E9474066A94F6CF14
:100A70000C5F1F4FDFCFF801808189830E5F1F4F0E
:100A800091E0892E912C5E01FFEFAF1ABF0ADBCFF8
:100A9000F801A190B1908F01692D70E076FC02C041
:100AA0006FEF7FEFC5010E9469064C01CCCFF801C2
:100AB000A190B1908F01692D70E076FC02C06FEFBC
:100AC0007FEFC5010E945E064C01689477F8BDCFA8
:100AD000B60180E290E00E9474066A94B8CFF501F6
:100AE00077FC859177FE81915F01B60190E00E94CD
:100AF000740681E0611001C080E0681AF1E08F1A8D
:100B00009108A8CF61917191872F880F880B982F3A
:100B100063CF9537C9F4872CE89484F82AE030E055
:100B2000F80187FE4BC061917191819191918F0184
:100B30005E01FFEFAF1ABF0AA5010E94A406782E3E
:100B40007A18E89487F85DCF872D897F882E9037B3
:100B500029F1E8F4983539F19F3669F1F60186817B
:100B600097812B960FB6F894DEBF0FBECDBFDF91F5
:100B7000CF911F910F91FF90EF90DF90CF90BF909A
:100B8000AF909F908F907F906F905F90089598376F
:100B900029F774FC05C020E130E0C2CF689484F8E6
:100BA000689482F8F8CF74FE03C0E72DE6608E2EBD
:100BB00020E132E0B5CF28E030E0B2CF6191719111
:100BC00080E090E0B4CF882EB72C84FE28CFFE01C1
:100BD000E70DF11D8081803309F044C049EE842285
:100BE00083FC0EC080FE51C0972CB61418F4960CEE
:100BF0009B18B62C862D8B196B1408F480E0B80E68
:100C0000B61408F044C06B1884FE43C0B60180E3FC
:100C100090E00E94740682FE09C088E590E081FCA5
:100C200002C088E790E0B6010E9474067914E0F1F2
:100C30005E018FEFA81AB80A7A9482E0882E912C70
:100C40008C0E9D1E870C911CF40182914F01B60100
:100C500090E00E9474068A149B04B1F7FFCEB92C71
:100C6000882EB5CF82FC02C0B394BACFB394B394AC
:100C7000B7CFB92C882ED3CEB60180E290E00E9487
:100C80007406A394A614C0F3B5CFAB2CFBCF612C94
:100C9000BBCF882D867851F280E281FC8BE287FC05
:100CA0008DE2B60190E0C0CFB60180E390E00E94F3
:100CB00074069A94BBCF8FEF9FEF53CFFC01059042
:100CC000615070400110D8F7809590958E0F9F1F4E
:100CD0000895FC016150704001900110D8F7809593
:100CE00090958E0F9F1F08950F931F93CF93DF93BF
:100CF000182F092FEB018B8181FD09C00FEF1FEF2A
:100D0000812F902FDF91CF911F910F91089582FF36
:100D100014C02E813F818C819D81281739073CF4B6
:100D2000E881F981CF0101968883998310838E81B0
:100D30009F8101968E839F83E3CFE885F985812F7C
:100D40001995892BA1F3DACFFA01AA27283051F19E
:100D5000203181F1E8946F936E7F6E5F7F4F8F4FEC
:100D60009F4FAF4FB1E03ED0B4E03CD0670F781F4B
:100D7000891F9A1FA11D680F791F8A1F911DA11D30
:100D80006A0F711D811D911DA11D20D009F4689469
:100D90003F912AE0269F11243019305D3193DEF611
:100DA000CF010895462F4770405D4193B3E00FD0C7
:100DB000C9F7F6CF462F4F70405D4A3318F0495DB2
:100DC00031FD4052419302D0A9F7EACFB4E0A69595
:100DD0009795879577956795BA95C9F700976105B7
:100DE000710508959B01AC010A2E0694579547950D
:100DF00037952795BA95C9F7620F731F841F951F02
:100E0000A01D089590958095709561957F4F8F4FA7
:100E10009F4F0895F894FFCF47014F014F014F01B5
:100E200049014F014B014D014F014F014F014F014E
:100E30004F014F014F014F014F014F014F014F0132
:100E40004F014F014F014F014F014F014F014F0122
:100E50004F014F014F014F014F014F014F014F0112
:100E60004F014F014F014F014F014F014F014F0102
:100E70004F014F014F014F014F014F014F014F01F2
:100E80004F014F014F014F014F014F014F014F01E2
:100E90004F014F014F014F013F014F014F014F01E2
:100EA00041014F01430145014F014F014F014F01E6
:100EB0004F014F014F014F014F014F014F014F01B2
:100EC0004F014F014F014F014F014F014F014F01A2
:100ED0004F014F014F014F0137014F014F014F01AA
:100EE00039014F013B013D014F014F014F014F01BE
:100EF0004F014F014F014F012F014F014F014F0192
:100F000051014F0131013501B0022A035B038C030B
:060F1000AC03E103040440
:100F1600456E74657220666C6F6F723A00466C6F30
:100F26006F723A256400446F6F72206F70656E00B1
:100F3600446F6F7220636C6F73696E67004F6273E4
:100F46007461636C65210053616D6520666C6F6F1B
:020F5600720027
:00000001FF
