:100000000C94A2000C94C3000C94C3000C94C30085
:100010000C94C3000C94C3000C94C3000C94C30054
:100020000C94C3000C94C3000C94C3000C94C30044
:100030000C94C3000C94C3000C94C3000C94C30034
:100040000C94C3000C94C3000C94C3000C94C30024
:100050000C94C3000C94C3000C94C3000C94C30014
:100060000C94C3000C94C3000C94C3000C94C30004
:100070000C94C3000C94C3000C94C3000C94C300F4
:100080000C94C3000C94C3000C94C3000C94C300E4
:100090000C94C3000C94C3000C94C3000C94C300D4
:1000A0000C94C3000C94C3000C94C3000C94C300C4
:1000B0000C94C3000C94C3000C94C3000C94C300B4
:1000C0000C94C3000C94C3000C94C3000C94C300A4
:1000D0000C94C3000C94C3000C94C3000C94C30094
:1000E0000C94C3000C9451010C9460030C94B10364
:1000F0000C944F010C948F030C9441010C94450116
:100100000C944D010C943D010C943F010C9443015F
:100110000C9435010C9431030C94E4030C943701D6
:100120000C9400040C9447010C944B010C942F0187
:100130000C9449010C94B6020C9439010C943B01C7
:100140000C94310111241FBECFEFD1E2DEBFCDBF31
:1001500000E00CBF12E0A0E0B2E0EEE0FFE000E063
:100160000BBF02C007900D92A234B107D9F722E06D
:10017000A2E4B2E001C01D92A836B207E1F70E94E6
:100180008C020C9406070C94000080EF809307010A
:100190008FE0809308010895CF93DF93A8E0B1E04A
:1001A00090EFE6E0F1E09C9380818F708F30D9F77B
:1001B000C9EFD0E02197F1F700C000009C93808147
:1001C0008F708F3081F7DF91CF910895CF93DF93B8
:1001D000A8E0B1E090EFE6E0F1E09C9380818F70C1
:1001E0008F30D9F3C9EFD0E02197F1F700C00000BC
:1001F0009C9380818F708F3081F3DF91CF91089530
:10020000CF93DF930E94CC0089EF90E00197F1F744
:1002100000C000000E94E60094E0EFEE28E031E02C
:10022000A6E0B1E0E901E883C9EFD0E02197F1F75A
:1002300000C000008C918F708F3029F4EE0FEF5FBB
:1002400091509111EFCFE07FE80FE757E83738F58D
:10025000F0E08827E85FF84F8F4F0C9412048AE291
:1002600001C084E3DF91CF91089581E3FBCF80E368
:10027000F9CF88E3F7CF85E3F5CF82E3F3CF83E2CD
:10028000F1CF89E3EFCF86E3EDCF83E3EBCF84E4D7
:10029000E9CF83E4E7CF82E4E5CF81E4E3CF8AE7E7
:1002A000E1CF87E3DFCF811509F1449A429A3F9865
:1002B0003D983B983998409A000088273799839554
:1002C0008295807F35998062339980643199806806
:1002D00040980000409A000037990AC03599826022
:1002E0003399846031998860409808954498DECFAE
:1002F0008160F4CF80E00E9453018115DCF300C0DF
:1003000000C080E00E9453010895409A0000409888
:100310000895CF93C82F611541F1449A42983F9AAE
:100320003D9A3B9A399A4198439845984798C11508
:10033000F4F0C6FD439AC5FD459AC4FD479A0E9454
:1003400085014198439845984798C3FD419AC2FD5D
:10035000439AC1FD459AC0FD479A0E948501479A7C
:10036000459A439A419ACF9108954498D7CF419A9C
:10037000E0CFCF93DF930F92CDB7DEB789830E9492
:100380007A0160E089810E9489010F90DF91CF910D
:10039000089581E00E94B9010895CF93C82F0E946B
:1003A0007A01CA3069F491E0803408F090E080E48A
:1003B000899F802D112480580E94B901CF91089502
:1003C00061E08C2F0E948901F9CFCF93DF93C82F72
:1003D000D92F8881811531F021960E94CD01899114
:1003E0008111FBCFDF91CF910895CF93DF930F92CF
:1003F000CDB7DEB789833C9A3A9A389A3F9A3D9AAC
:100400003B9A399A8FE99FE00197F1F700C000000D
:10041000459A479A0E94850181EE94E00197F1F791
:1004200000C000000E94850195E19A95F1F7000057
:100430000E94850185E18A95F1F7000047980E94A6
:10044000850195E19A95F1F7000088E20E94B901D3
:1004500088E00E94B9010E94C90186E00E94B901AA
:1004600089810E94B9010F90DF91CF91089583E0B7
:100470008093B8001092B900ECEBF0E080818460CA
:100480008083089594EA9093BC00ECEBF0E09081B7
:100490009115ECF79091B900987F983011F590E2A2
:1004A0009093BB0094E89093BC00ECEBF0E090815B
:1004B0009115ECF79091B900987F983191F4809361
:1004C000BB0084E88093BC00ECEBF0E080818115F8
:1004D000ECF78091B900887F883219F484E9809321
:1004E000BC00089580E480937C0086E880937A00C5
:1004F0000895ECE7F0E09081907F892B8083EAE714
:10050000F0E0808180648083808186FDFDCF8091D2
:10051000780090917900089500D00F920F92CDB796
:10052000DEB78CE00E94F5010E94C9010E94C5005F
:100530000E9472020E9437020F2EF3E0DF2EF02D90
:100540000F2EF5E0BF2EF02D6894CC24C2F80F2EAC
:10055000FDE0EF2EF2E0FF2EF02D03E412E00F2E6F
:10056000F6E0AF2EF02D09831A83EDC080E00E94E3
:1005700042020E94C90180E092E00E94E5011092CF
:10058000640281E08093630231C0292F220F220F81
:10059000920F990F890F809364020E94C901809184
:1005A00064021F928F93FF92EF921F930F930E940A
:1005B0001A0489819A810E94E5010F900F900F9093
:1005C0000F900F900F9022C08FE39CE90197F1F7F5
:1005D00000C000000E9400018A37B1F780914202FA
:1005E0008332F1F0809142028A3219F180916302E4
:1005F000811529F10E9400018093420280538A30C4
:1006000068F7909164029A3008F4BFCF9FEF23EC13
:1006100089E0915020408040E1F700C00000DACF2F
:10062000109264020E94C90180E092E00E94E501FC
:10063000D9CF80916402809365028B81A3CF809192
:10064000650290916602981729F038F481E0809352
:10065000670279C0A092670276C082E08093670249
:1006600072C082E00E944202809166028F5F809396
:1006700066020E94C901809166021F928F93FF92C9
:10068000EF921F930F930E941A04C8010E94E50184
:100690009FEF23ED80E3915020408040E1F700C0C0
:1006A00000000F900F900F900F900F900F9090916F
:1006B000660280916502981346C0D092670243C0DB
:1006C00082E00E944202809166028150809366021D
:1006D0000E94C901809166021F928F93FF92EF9250
:1006E0001F930F930E941A04C8010E94E5019FEF17
:1006F00023ED80E3915020408040E1F700C00000EE
:100700000F900F900F900F900F900F9090916602A6
:1007100080916502981317C0D092670214C08D2D86
:100720000E9442020E94C90186E192E00E94E50116
:100730009FEF2BE782E9915020408040E1F700C015
:100740000000C0926702209167022B838B81873063
:10075000E8F7E82FF0E08827E058F84F8F4F0C9427
:1007600012048D2D0E9442020E94C90180E292E093
:100770000E94E50188E290E09D838C8387E00E94DF
:10078000790280399140D0F08FEF90E722E08150DC
:1007900090402040E1F700C000008C819D810197CE
:1007A0009D838C83892B51F780916702853059F2A4
:1007B00080E00E94420210926702C5CF81E00E9451
:1007C0004202B0926702BFCF0E94C9018DE292E05F
:1007D0000E94E50181E00E94420209C09FEF21EEE4
:1007E00084E0915020408040E1F700C0000087E0A5
:1007F0000E9479028039914088F3D0926702A3CF9A
:100800000E94C90187E392E00E94E5018FEF97EA19
:1008100021E6815090402040E1F700C00000109296
:10082000670291CFEE0FFF1F881F8BBF0790F691D5
:10083000E02D1994CF93DF93CDB7DEB72E970FB687
:10084000F894DEBF0FBECDBF86E08C832C893D8936
:1008500029833A838FEF9FE78D839E83AE01485EA5
:100860005F4F6E897F89CE0101960E944704EF8118
:10087000F8852C893D89E20FF31F10822E960FB662
:10088000F894DEBF0FBECDBFDF91CF9108955F9288
:100890006F927F928F929F92AF92BF92CF92DF9290
:1008A000EF92FF920F931F93CF93DF9300D000D06E
:1008B00000D00F920F92CDB7DEB76C017B018A0199
:1008C000FC0116821782838181FFF1C13AE0532E29
:1008D000F6012381F70123FD859123FF81917F019B
:1008E000811509F437C1853239F423FD959123FF31
:1008F00091917F01953229F4B60190E00E94700633
:10090000E7CF30E0912C612C712CF0E27F1640F59E
:100910009B32D9F058F49032D1F09332F1F09E32FC
:1009200091F576FC17C1689476F806C09D3291F077
:100930009033C1F4689470F8F70123FD959123FF7B
:1009400091917F019111E1CF28C0689471F868946A
:1009500072F8F2CF689473F8EFCF689474F8ECCF24
:1009600077FC1BC080ED890F8A30C8F676FE05C083
:10097000959C800D1124982EDFCF659C800D11244D
:10098000682E7F2AD9CF9C3619F4689477F8D4CF93
:100990009C3409F445C0983679F2892F8F7D8554AF
:1009A000833008F43FC0933609F461C0933709F4EB
:1009B0006BC0933509F477C0943619F0993609F075
:1009C000A4C0F80177FE9AC06191719181919191D3
:1009D0008F01272D2F76822E97FF04C00E94FE06DE
:1009E000689487F82AE030E05E014FEFA41AB40A59
:1009F000A5010E94A006782E7A1886FEE1C0882DF7
:100A00008E7F791408F0DBC084FE2FC182FC23C1E5
:100A10002EEE8222B92C882D867809F4DDC020C103
:100A200031E08ACF311501F1085F1F4F8FE38983D1
:100A300021E0822E912C5E012FEFA21AB20AE894D7
:100A400077F873FC03C086149104F0F181149104CB
:100A500009F041C0611409F43BCFB60180E290E097
:100A60000E9470066A94F6CF0C5F1F4FDFCFF8012B
:100A7000808189830E5F1F4F91E0892E912C5E014A
:100A8000FFEFAF1ABF0ADBCFF801A190B1908F0141
:100A9000692D70E076FC02C06FEF7FEFC5010E9408
:100AA00065064C01CCCFF801A190B1908F01692D62
:100AB00070E076FC02C06FEF7FEFC5010E945A061E
:100AC0004C01689477F8BDCFB60180E290E00E94B7
:100AD00070066A94B8CFF50177FC859177FE819115
:100AE0005F01B60190E00E94700681E0611001C0D4
:100AF00080E0681AF1E08F1A9108A8CF6191719196
:100B0000872F880F880B982F63CF9537C9F4872CD0
:100B1000E89484F82AE030E0F80187FE4BC0619148
:100B20007191819191918F015E01FFEFAF1ABF0A20
:100B3000A5010E94A006782E7A18E89487F85DCF68
:100B4000872D897F882E903729F1E8F4983539F17F
:100B50009F3669F1F601868197812B960FB6F8943E
:100B6000DEBF0FBECDBFDF91CF911F910F91FF90E0
:100B7000EF90DF90CF90BF90AF909F908F907F903D
:100B80006F905F900895983729F774FC05C020E1B5
:100B900030E0C2CF689484F8689482F8F8CF74FE8D
:100BA00003C0E72DE6608E2E20E132E0B5CF28E0CD
:100BB00030E0B2CF6191719180E090E0B4CF882EA7
:100BC000B72C84FE28CFFE01E70DF11D8081803314
:100BD00009F044C049EE842283FC0EC080FE51C05F
:100BE000972CB61418F4960C9B18B62C862D8B19DE
:100BF0006B1408F480E0B80EB61408F044C06B180B
:100C000084FE43C0B60180E390E00E94700682FE3D
:100C100009C088E590E081FC02C088E790E0B60159
:100C20000E9470067914E0F15E018FEFA81AB80AED
:100C30007A9482E0882E912C8C0E9D1E870C911C3C
:100C4000F40182914F01B60190E00E9470068A146F
:100C50009B04B1F7FFCEB92C882EB5CF82FC02C021
:100C6000B394BACFB394B394B7CFB92C882ED3CE64
:100C7000B60180E290E00E947006A394A614C0F32F
:100C8000B5CFAB2CFBCF612CBBCF882D867851F232
:100C900080E281FC8BE287FC8DE2B60190E0C0CF60
:100CA000B60180E390E00E9470069A94BBCF8FEF6C
:100CB0009FEF53CFFC010590615070400110D8F7B1
:100CC000809590958E0F9F1F0895FC016150704094
:100CD00001900110D8F7809590958E0F9F1F089571
:100CE0000F931F93CF93DF93182F092FEB018B8165
:100CF00081FD09C00FEF1FEF812F902FDF91CF9162
:100D00001F910F91089582FF14C02E813F818C8125
:100D10009D81281739073CF4E881F981CF010196BC
:100D20008883998310838E819F8101968E839F8310
:100D3000E3CFE885F985812F1995892BA1F3DACFC7
:100D4000FA01AA27283051F1203181F1E8946F93FC
:100D50006E7F6E5F7F4F8F4F9F4FAF4FB1E03ED0A2
:100D6000B4E03CD0670F781F891F9A1FA11D680F40
:100D7000791F8A1F911DA11D6A0F711D811D911D73
:100D8000A11D20D009F468943F912AE0269F1124E8
:100D90003019305D3193DEF6CF010895462F47704C
:100DA000405D4193B3E00FD0C9F7F6CF462F4F70A7
:100DB000405D4A3318F0495D31FD4052419302D005
:100DC000A9F7EACFB4E0A6959795879577956795AB
:100DD000BA95C9F700976105710508959B01AC01AB
:100DE0000A2E06945795479537952795BA95C9F7D2
:100DF000620F731F841F951FA01D08959095809505
:100E0000709561957F4F8F4F9F4F0895F894FFCF56
:100E100047014F014F014F0149014F014B014D0166
:100E20004F014F014F014F014F014F014F014F0142
:100E30004F014F014F014F014F014F014F014F0132
:100E40004F014F014F014F014F014F014F014F0122
:100E50004F014F014F014F014F014F014F014F0112
:100E60004F014F014F014F014F014F014F014F0102
:100E70004F014F014F014F014F014F014F014F01F2
:100E80004F014F014F014F014F014F014F014F01E2
:100E90003F014F014F014F0141014F014301450106
:100EA0004F014F014F014F014F014F014F014F01C2
:100EB0004F014F014F014F014F014F014F014F01B2
:100EC0004F014F014F014F014F014F014F014F01A2
:100ED00037014F014F014F0139014F013B013D01E6
:100EE0004F014F014F014F014F014F014F014F0182
:100EF0002F014F014F014F0151014F0131013501C8
:0E0F0000B602310360038F03B103E403000463
:100F0E00456E74657220666C6F6F723A00466C6F38
:100F1E006F723A256400446F6F72206F70656E00B9
:100F2E00446F6F7220636C6F73696E67004F6273EC
:100F3E007461636C65210053616D6520666C6F6F23
:020F4E0072002F
:00000001FF
