:100000000C9434000C9446000C9446000C9446006A
:100010000C9446000C9446000C9446000C94460048
:100020000C9446000C9446000C9446000C94460038
:100030000C9446000C9446000C9446000C94460028
:100040000C9446000C9446000C9446000C94460018
:100050000C9446000C9446000C9446000C94460008
:100060000C94DB000C94460011241FBECFEFD8E0A7
:10007000DEBFCDBF21E0A0E0B1E001C01D92A13004
:10008000B207E1F70E9404010C9452010C940000A5
:10009000CF92DF92EF92FF920F931F93CF93DF9354
:1000A00000D000D0CDB7DEB78B019C0140E050E01E
:1000B00060E472E48FE090E00E94300129833A838B
:1000C0004B835C8369017A019801A8EEB3E00E943A
:1000D00021016C157D058E059F05D0F1A7019601C4
:1000E0000E94300169017A0149815A816B817C81CA
:1000F000769567955795479500E010E098012D9A01
:1001000080E090E0DC01E5E0EA95F1F7000001967F
:10011000A11DB11D84179507A607B707A1F72D9854
:1001200080E090E0DC01E5E0EA95F1F7000001965F
:10013000A11DB11D84179507A607B707A1F70F5F8B
:100140001F4F2F4F3F4F0C151D052E053F05B8F2D1
:100150000F900F900F900F90DF91CF911F910F9103
:10016000FF90EF90DF90CF90089566E970E08BE00C
:1001700092E00E94480066E970E083E992E00E9404
:10018000480066E970E080E193E00E94480066E97B
:1001900070E083E992E00E94480068EC70E08BE038
:1001A00092E00E944800089580E28093BA0085E4BE
:1001B0008093BC0008951F921FB61F9211248F9345
:1001C0008091B900887F803631F0803861F085EC0D
:1001D0008093BC0003C085EC8093BC008F911F907E
:1001E0001FBE1F9018958091BB00813051F0809107
:1001F000BB00811102C01092000185EC8093BC000D
:10020000EDCF80930001F3CF84B1806384B90E9465
:10021000D4007894C0E102C02C982D988091000100
:100220008115D1F385B18C2785B90E94B5002FEFD8
:1002300085EA9EE0215080409040E1F700C0000038
:10024000EDCFA29FB001B39FC001A39F700D811D90
:100250001124911DB29F700D811D1124911D0895CF
:10026000A1E21A2EAA1BBB1BFD010DC0AA1FBB1FBA
:10027000EE1FFF1FA217B307E407F50720F0A21B2C
:10028000B30BE40BF50B661F771F881F991F1A9499
:1002900069F760957095809590959B01AC01BD01C3
:0802A000CF010895F894FFCF8F
:00000001FF
