:100000000C9434000C9446000C9446000C9446006A
:100010000C9446000C9446000C9446000C94460048
:100020000C9446000C9446000C9446000C94460038
:100030000C9446000C9446000C9446000C94460028
:100040000C9446000C9446000C9446000C94460018
:100050000C9446000C9446000C9446000C94460008
:100060000C9446000C94460011241FBECFEFD8E03C
:10007000DEBFCDBF21E0A0E0B1E001C01D92A33002
:10008000B207E1F70E94DF000C9469010C940000B4
:10009000CF92DF92EF92FF920F931F93CF93DF9354
:1000A00000D000D0CDB7DEB78B019C0140E050E01E
:1000B00060E472E48FE090E00E94470129833A8374
:1000C0004B835C8369017A019801A8EEB3E00E943A
:1000D00038016C157D058E059F05D0F1A7019601AD
:1000E0000E94470169017A0149815A816B817C81B3
:1000F000769567955795479500E010E098012D9A01
:1001000080E090E0DC01E5E0EA95F1F7000001967F
:10011000A11DB11D84179507A607B707A1F72D9854
:1001200080E090E0DC01E5E0EA95F1F7000001965F
:10013000A11DB11D84179507A607B707A1F70F5F8B
:100140001F4F2F4F3F4F0C151D052E053F05B8F2D1
:100150000F900F900F900F90DF91CF911F910F9103
:10016000FF90EF90DF90CF90089566E970E08BE00C
:1001700092E00E94480066E970E083E992E00E9404
:10018000480066E970E080E193E00E94480066E97B
:1001900070E083E992E00E94480068EC70E08BE038
:1001A00092E00E944800089585B1817C85B9089548
:1001B00080E28093BA0084E48093BC00089584B107
:1001C0008E6384B90E94D800CCEBD0E009EB10E03C
:1001D0000F2EF4ECDF2EF02D0F2EFBEBEF2EF12C7B
:1001E000F02D6894CC24C4F824C0F8018081887F65
:1001F00080930101803631F0803831F0803A71F01F
:10020000D8821AC0D88218C0F7018081809300017B
:10021000843010F480930201D8820EC0D8820CC0C2
:10022000833039F40E94D400299A03C00E94D4007C
:100230002B9A88818115CCF2809102018230A1F045
:1002400078F7811599F30E94D40085B18C2585B982
:100250000E94B500FFEF25EA8EE0F150204080407B
:10026000E1F700C00000E5CF0E94D4002A9AE1CF58
:10027000A29FB001B39FC001A39F700D811D1124E7
:10028000911DB29F700D811D1124911D0895A1E251
:100290001A2EAA1BBB1BFD010DC0AA1FBB1FEE1F00
:1002A000FF1FA217B307E407F50720F0A21BB30B4B
:1002B000E40BF50B661F771F881F991F1A9469F7C7
:1002C00060957095809590959B01AC01BD01CF0123
:0602D0000895F894FFCF31
:00000001FF
