:100000000C9434000C9446000C9446000C9446006A
:100010000C9446000C9446000C9446000C94460048
:100020000C9446000C9446000C9446000C94460038
:100030000C9446000C9446000C9446000C94460028
:100040000C9446000C9446000C9446000C94460018
:100050000C9446000C9446000C9446000C94460008
:100060000C9446000C94460011241FBECFEFD8E03C
:10007000DEBFCDBF21E0A0E0B1E001C01D92A33002
:10008000B207E1F70E94DB000C945B010C940000C6
:10009000CF92DF92EF92FF920F931F93CF93DF9354
:1000A00000D000D0CDB7DEB78B019C0140E050E01E
:1000B00060E472E48FE090E00E94390129833A8382
:1000C0004B835C8369017A019801A8EEB3E00E943A
:1000D0002A016C157D058E059F05D0F1A7019601BB
:1000E0000E94390169017A0149815A816B817C81C1
:1000F000769567955795479500E010E098012D9A01
:1001000080E090E0DC01E5E0EA95F1F7000001967F
:10011000A11DB11D84179507A607B707A1F72D9854
:1001200080E090E0DC01E5E0EA95F1F7000001965F
:10013000A11DB11D84179507A607B707A1F70F5F8B
:100140001F4F2F4F3F4F0C151D052E053F05B8F2D1
:100150000F900F900F900F90DF91CF911F910F9103
:10016000FF90EF90DF90CF90089566E970E08BE00C
:1001700092E00E94480066E970E083E992E00E9404
:10018000480066E970E080E193E00E94480066E97B
:1001900070E083E992E00E94480068EC70E08BE038
:1001A00092E00E944800089580E28093BA0084E4BF
:1001B0008093BC00089584B1806384B90E94D40008
:1001C000CCEBD0E009EB10E00F2EF4ECCF2EF02DAD
:1001D0000F2EFBEBEF2EF12CF02DBB24B394689483
:1001E000DD24D4F821C0F8018081887F809301014B
:1001F000803631F0803831F0803A91F0C88217C0F3
:10020000C88215C0F701808180930001813021F000
:1002100028F41092020102C0B0920201C88207C005
:10022000C88205C02C982D9888818115E4F28091B0
:1002300002018115B9F385B18D2585B90E94B500FC
:10024000FFEF25EA8EE0F15020408040E1F700C04A
:100250000000EACFA29FB001B39FC001A39F700D21
:10026000811D1124911DB29F700D811D1124911DBE
:100270000895A1E21A2EAA1BBB1BFD010DC0AA1FE7
:10028000BB1FEE1FFF1FA217B307E407F50720F0FF
:10029000A21BB30BE40BF50B661F771F881F991F7A
:1002A0001A9469F760957095809590959B01AC01C3
:0A02B000BD01CF010895F894FFCFBF
:00000001FF
